{
  "abi": [
    {
      "inputs": [],
      "stateMutability": "nonpayable",
      "type": "constructor"
    },
    {
      "anonymous": false,
      "inputs": [
        {
          "indexed": false,
          "internalType": "address",
          "name": "seller",
          "type": "address"
        },
        {
          "indexed": false,
          "internalType": "address",
          "name": "buyer",
          "type": "address"
        },
        {
          "indexed": false,
          "internalType": "string",
          "name": "bought",
          "type": "string"
        }
      ],
      "name": "purchaseOp",
      "type": "event"
    },
    {
      "inputs": [
        {
          "internalType": "uint256",
          "name": "",
          "type": "uint256"
        }
      ],
      "name": "assetList",
      "outputs": [
        {
          "internalType": "address",
          "name": "owner",
          "type": "address"
        },
        {
          "internalType": "string",
          "name": "description",
          "type": "string"
        },
        {
          "internalType": "uint256",
          "name": "price",
          "type": "uint256"
        },
        {
          "internalType": "bool",
          "name": "sold",
          "type": "bool"
        }
      ],
      "stateMutability": "view",
      "type": "function"
    },
    {
      "inputs": [],
      "name": "buyer",
      "outputs": [
        {
          "internalType": "address payable",
          "name": "",
          "type": "address"
        }
      ],
      "stateMutability": "view",
      "type": "function"
    },
    {
      "inputs": [],
      "name": "newAsset",
      "outputs": [
        {
          "internalType": "address",
          "name": "owner",
          "type": "address"
        },
        {
          "internalType": "string",
          "name": "description",
          "type": "string"
        },
        {
          "internalType": "uint256",
          "name": "price",
          "type": "uint256"
        },
        {
          "internalType": "bool",
          "name": "sold",
          "type": "bool"
        }
      ],
      "stateMutability": "view",
      "type": "function"
    },
    {
      "inputs": [
        {
          "internalType": "address",
          "name": "",
          "type": "address"
        }
      ],
      "name": "parties",
      "outputs": [
        {
          "internalType": "address",
          "name": "",
          "type": "address"
        }
      ],
      "stateMutability": "view",
      "type": "function"
    },
    {
      "inputs": [
        {
          "internalType": "address",
          "name": "_buyer",
          "type": "address"
        },
        {
          "internalType": "string",
          "name": "_item",
          "type": "string"
        }
      ],
      "name": "purchase",
      "outputs": [
        {
          "internalType": "bool",
          "name": "",
          "type": "bool"
        }
      ],
      "stateMutability": "payable",
      "type": "function"
    },
    {
      "inputs": [],
      "name": "seller",
      "outputs": [
        {
          "internalType": "address payable",
          "name": "",
          "type": "address"
        }
      ],
      "stateMutability": "view",
      "type": "function"
    },
    {
      "inputs": [
        {
          "internalType": "string",
          "name": "_description",
          "type": "string"
        },
        {
          "internalType": "uint256",
          "name": "_price",
          "type": "uint256"
        }
      ],
      "name": "setItem",
      "outputs": [
        {
          "internalType": "bool",
          "name": "",
          "type": "bool"
        }
      ],
      "stateMutability": "nonpayable",
      "type": "function"
    }
  ],
  "bytecode": "608060405234801561001057600080fd5b50600080546001600160a01b03191633179055610b9c806100326000396000f3fe6080604052600436106100705760003560e01c80633a1b1d571161004e5780633a1b1d57146100f25780634f235207146101055780637150d8ae14610125578063a0b4b3011461013a57610070565b8063061a8a931461007557806308551a53146100a3578063389dc09b146100c5575b600080fd5b34801561008157600080fd5b5061008a61015a565b60405161009a9493929190610a77565b60405180910390f35b3480156100af57600080fd5b506100b861020b565b60405161009a9190610a2e565b3480156100d157600080fd5b506100e56100e036600461098b565b61021a565b60405161009a9190610ab3565b6100e561010036600461093f565b610325565b34801561011157600080fd5b506100b861012036600461091e565b61061e565b34801561013157600080fd5b506100b8610639565b34801561014657600080fd5b5061008a6101553660046109ce565b610648565b60028054600380546001600160a01b03909216929161017890610aee565b80601f01602080910402602001604051908101604052809291908181526020018280546101a490610aee565b80156101f15780601f106101c6576101008083540402835291602001916101f1565b820191906000526020600020905b8154815290600101906020018083116101d457829003601f168201915b50505050600283015460039093015491929160ff16905084565b6000546001600160a01b031681565b600080546001600160a01b0316331461023257600080fd5b8251610245906003906020860190610772565b5060048281556005805460ff1916905560008054600280546001600160a01b039283166001600160a01b0319918216178083556006805460018101825595527ff652222313e28459528d920b65115c16c04f3efc82aaedc97be59f3f377c0d3f9490950293840180549590931694169390931781556003805491927ff652222313e28459528d920b65115c16c04f3efc82aaedc97be59f3f377c0d4001916102ec90610aee565b6102f79291906107f6565b50600282810154908201556003918201549101805460ff191660ff9283161515179055600554169392505050565b600080546001600160a01b031633141561033e57600080fd5b600180546001600160a01b0319166001600160a01b038581169190911791829055662386f26fc100009116311080159061037e575061037c82610687565b155b61038757600080fd5b60005b6006548110156105c75761045883600683815481106103b957634e487b7160e01b600052603260045260246000fd5b906000526020600020906004020160010180546103d590610aee565b80601f016020809104026020016040519081016040528092919081815260200182805461040190610aee565b801561044e5780601f106104235761010080835404028352916020019161044e565b820191906000526020600020905b81548152906001019060200180831161043157829003601f168201915b5050505050610716565b156105b557600054600680546001600160a01b03909216916108fc91908490811061049357634e487b7160e01b600052603260045260246000fd5b9060005260206000209060040201600201549081150290604051600060405180830381858888f193505050501580156104d0573d6000803e3d6000fd5b50600154600680546001600160a01b03909216918390811061050257634e487b7160e01b600052603260045260246000fd5b906000526020600020906004020160000160006101000a8154816001600160a01b0302191690836001600160a01b0316021790555060016006828154811061055a57634e487b7160e01b600052603260045260246000fd5b60009182526020808320600360049093020191909101805493151560ff199094169390931790925560015481546001600160a01b0390811683526007909352604090912080546001600160a01b031916929091169190911790555b806105bf81610b29565b91505061038a565b506000546001546040517f0b6316b0027fb4c4f0fc092262db612369b24790e9b16502e7ded7055168fbd89261060d926001600160a01b03918216929116908690610a42565b60405180910390a150600192915050565b6007602052600090815260409020546001600160a01b031681565b6001546001600160a01b031681565b6006818154811061065857600080fd5b6000918252602090912060049091020180546001820180546001600160a01b0390921693509061017890610aee565b600080805b60065481101561070d576106bb84600683815481106103b957634e487b7160e01b600052603260045260246000fd5b156106fb57600681815481106106e157634e487b7160e01b600052603260045260246000fd5b600091825260209091206003600490920201015460ff1691505b8061070581610b29565b91505061068c565b5090505b919050565b6000808260405160200161072a9190610a12565b60405160208183030381529060405280519060200120846040516020016107519190610a12565b60408051808303601f19018152919052805160209091012014949350505050565b82805461077e90610aee565b90600052602060002090601f0160209004810192826107a057600085556107e6565b82601f106107b957805160ff19168380011785556107e6565b828001600101855582156107e6579182015b828111156107e65782518255916020019190600101906107cb565b506107f2929150610871565b5090565b82805461080290610aee565b90600052602060002090601f01602090048101928261082457600085556107e6565b82601f1061083557805485556107e6565b828001600101855582156107e657600052602060002091601f016020900482015b828111156107e6578254825591600101919060010190610856565b5b808211156107f25760008155600101610872565b80356001600160a01b038116811461071157600080fd5b600082601f8301126108ad578081fd5b813567ffffffffffffffff808211156108c8576108c8610b50565b604051601f8301601f1916810160200182811182821017156108ec576108ec610b50565b604052828152848301602001861015610903578384fd5b82602086016020830137918201602001929092529392505050565b60006020828403121561092f578081fd5b61093882610886565b9392505050565b60008060408385031215610951578081fd5b61095a83610886565b9150602083013567ffffffffffffffff811115610975578182fd5b6109818582860161089d565b9150509250929050565b6000806040838503121561099d578182fd5b823567ffffffffffffffff8111156109b3578283fd5b6109bf8582860161089d565b95602094909401359450505050565b6000602082840312156109df578081fd5b5035919050565b600081518084526109fe816020860160208601610abe565b601f01601f19169290920160200192915050565b60008251610a24818460208701610abe565b9190910192915050565b6001600160a01b0391909116815260200190565b6001600160a01b03848116825283166020820152606060408201819052600090610a6e908301846109e6565b95945050505050565b6001600160a01b0385168152608060208201819052600090610a9b908301866109e6565b60408301949094525090151560609091015292915050565b901515815260200190565b60005b83811015610ad9578181015183820152602001610ac1565b83811115610ae8576000848401525b50505050565b600281046001821680610b0257607f821691505b60208210811415610b2357634e487b7160e01b600052602260045260246000fd5b50919050565b6000600019821415610b4957634e487b7160e01b81526011600452602481fd5b5060010190565b634e487b7160e01b600052604160045260246000fdfea2646970667358221220fd12eba60ae14627837582c8fcc6efdd5e6fc48154fcbf49bd384a5b8cced23e64736f6c63430008000033",
  "bytecodeSha1": "a4b84f33439a160454d29d62da18badbf141d743",
  "compiler": {
    "evm_version": "istanbul",
    "optimizer": {
      "enabled": true,
      "runs": 200
    },
    "version": "0.8.0+commit.c7dfd78e"
  },
  "contractName": "sellingContract",
  "language": "Solidity",
  "natspec": {
    "kind": "dev",
    "methods": {},
    "version": 1
  },
  "opcodes": "PUSH1 0x80 PUSH1 0x40 MSTORE PUSH1 0x4 CALLDATASIZE LT PUSH2 0x70 JUMPI PUSH1 0x0 CALLDATALOAD PUSH1 0xE0 SHR DUP1 PUSH4 0x3A1B1D57 GT PUSH2 0x4E JUMPI DUP1 PUSH4 0x3A1B1D57 EQ PUSH2 0xF2 JUMPI DUP1 PUSH4 0x4F235207 EQ PUSH2 0x105 JUMPI DUP1 PUSH4 0x7150D8AE EQ PUSH2 0x125 JUMPI DUP1 PUSH4 0xA0B4B301 EQ PUSH2 0x13A JUMPI PUSH2 0x70 JUMP JUMPDEST DUP1 PUSH4 0x61A8A93 EQ PUSH2 0x75 JUMPI DUP1 PUSH4 0x8551A53 EQ PUSH2 0xA3 JUMPI DUP1 PUSH4 0x389DC09B EQ PUSH2 0xC5 JUMPI JUMPDEST PUSH1 0x0 DUP1 REVERT JUMPDEST CALLVALUE DUP1 ISZERO PUSH2 0x81 JUMPI PUSH1 0x0 DUP1 REVERT JUMPDEST POP PUSH2 0x8A PUSH2 0x15A JUMP JUMPDEST PUSH1 0x40 MLOAD PUSH2 0x9A SWAP5 SWAP4 SWAP3 SWAP2 SWAP1 PUSH2 0xA77 JUMP JUMPDEST PUSH1 0x40 MLOAD DUP1 SWAP2 SUB SWAP1 RETURN JUMPDEST CALLVALUE DUP1 ISZERO PUSH2 0xAF JUMPI PUSH1 0x0 DUP1 REVERT JUMPDEST POP PUSH2 0xB8 PUSH2 0x20B JUMP JUMPDEST PUSH1 0x40 MLOAD PUSH2 0x9A SWAP2 SWAP1 PUSH2 0xA2E JUMP JUMPDEST CALLVALUE DUP1 ISZERO PUSH2 0xD1 JUMPI PUSH1 0x0 DUP1 REVERT JUMPDEST POP PUSH2 0xE5 PUSH2 0xE0 CALLDATASIZE PUSH1 0x4 PUSH2 0x98B JUMP JUMPDEST PUSH2 0x21A JUMP JUMPDEST PUSH1 0x40 MLOAD PUSH2 0x9A SWAP2 SWAP1 PUSH2 0xAB3 JUMP JUMPDEST PUSH2 0xE5 PUSH2 0x100 CALLDATASIZE PUSH1 0x4 PUSH2 0x93F JUMP JUMPDEST PUSH2 0x325 JUMP JUMPDEST CALLVALUE DUP1 ISZERO PUSH2 0x111 JUMPI PUSH1 0x0 DUP1 REVERT JUMPDEST POP PUSH2 0xB8 PUSH2 0x120 CALLDATASIZE PUSH1 0x4 PUSH2 0x91E JUMP JUMPDEST PUSH2 0x61E JUMP JUMPDEST CALLVALUE DUP1 ISZERO PUSH2 0x131 JUMPI PUSH1 0x0 DUP1 REVERT JUMPDEST POP PUSH2 0xB8 PUSH2 0x639 JUMP JUMPDEST CALLVALUE DUP1 ISZERO PUSH2 0x146 JUMPI PUSH1 0x0 DUP1 REVERT JUMPDEST POP PUSH2 0x8A PUSH2 0x155 CALLDATASIZE PUSH1 0x4 PUSH2 0x9CE JUMP JUMPDEST PUSH2 0x648 JUMP JUMPDEST PUSH1 0x2 DUP1 SLOAD PUSH1 0x3 DUP1 SLOAD PUSH1 0x1 PUSH1 0x1 PUSH1 0xA0 SHL SUB SWAP1 SWAP3 AND SWAP3 SWAP2 PUSH2 0x178 SWAP1 PUSH2 0xAEE JUMP JUMPDEST DUP1 PUSH1 0x1F ADD PUSH1 0x20 DUP1 SWAP2 DIV MUL PUSH1 0x20 ADD PUSH1 0x40 MLOAD SWAP1 DUP2 ADD PUSH1 0x40 MSTORE DUP1 SWAP3 SWAP2 SWAP1 DUP2 DUP2 MSTORE PUSH1 0x20 ADD DUP3 DUP1 SLOAD PUSH2 0x1A4 SWAP1 PUSH2 0xAEE JUMP JUMPDEST DUP1 ISZERO PUSH2 0x1F1 JUMPI DUP1 PUSH1 0x1F LT PUSH2 0x1C6 JUMPI PUSH2 0x100 DUP1 DUP4 SLOAD DIV MUL DUP4 MSTORE SWAP2 PUSH1 0x20 ADD SWAP2 PUSH2 0x1F1 JUMP JUMPDEST DUP3 ADD SWAP2 SWAP1 PUSH1 0x0 MSTORE PUSH1 0x20 PUSH1 0x0 KECCAK256 SWAP1 JUMPDEST DUP2 SLOAD DUP2 MSTORE SWAP1 PUSH1 0x1 ADD SWAP1 PUSH1 0x20 ADD DUP1 DUP4 GT PUSH2 0x1D4 JUMPI DUP3 SWAP1 SUB PUSH1 0x1F AND DUP3 ADD SWAP2 JUMPDEST POP POP POP POP PUSH1 0x2 DUP4 ADD SLOAD PUSH1 0x3 SWAP1 SWAP4 ADD SLOAD SWAP2 SWAP3 SWAP2 PUSH1 0xFF AND SWAP1 POP DUP5 JUMP JUMPDEST PUSH1 0x0 SLOAD PUSH1 0x1 PUSH1 0x1 PUSH1 0xA0 SHL SUB AND DUP2 JUMP JUMPDEST PUSH1 0x0 DUP1 SLOAD PUSH1 0x1 PUSH1 0x1 PUSH1 0xA0 SHL SUB AND CALLER EQ PUSH2 0x232 JUMPI PUSH1 0x0 DUP1 REVERT JUMPDEST DUP3 MLOAD PUSH2 0x245 SWAP1 PUSH1 0x3 SWAP1 PUSH1 0x20 DUP7 ADD SWAP1 PUSH2 0x772 JUMP JUMPDEST POP PUSH1 0x4 DUP3 DUP2 SSTORE PUSH1 0x5 DUP1 SLOAD PUSH1 0xFF NOT AND SWAP1 SSTORE PUSH1 0x0 DUP1 SLOAD PUSH1 0x2 DUP1 SLOAD PUSH1 0x1 PUSH1 0x1 PUSH1 0xA0 SHL SUB SWAP3 DUP4 AND PUSH1 0x1 PUSH1 0x1 PUSH1 0xA0 SHL SUB NOT SWAP2 DUP3 AND OR DUP1 DUP4 SSTORE PUSH1 0x6 DUP1 SLOAD PUSH1 0x1 DUP2 ADD DUP3 SSTORE SWAP6 MSTORE PUSH32 0xF652222313E28459528D920B65115C16C04F3EFC82AAEDC97BE59F3F377C0D3F SWAP5 SWAP1 SWAP6 MUL SWAP4 DUP5 ADD DUP1 SLOAD SWAP6 SWAP1 SWAP4 AND SWAP5 AND SWAP4 SWAP1 SWAP4 OR DUP2 SSTORE PUSH1 0x3 DUP1 SLOAD SWAP2 SWAP3 PUSH32 0xF652222313E28459528D920B65115C16C04F3EFC82AAEDC97BE59F3F377C0D40 ADD SWAP2 PUSH2 0x2EC SWAP1 PUSH2 0xAEE JUMP JUMPDEST PUSH2 0x2F7 SWAP3 SWAP2 SWAP1 PUSH2 0x7F6 JUMP JUMPDEST POP PUSH1 0x2 DUP3 DUP2 ADD SLOAD SWAP1 DUP3 ADD SSTORE PUSH1 0x3 SWAP2 DUP3 ADD SLOAD SWAP2 ADD DUP1 SLOAD PUSH1 0xFF NOT AND PUSH1 0xFF SWAP3 DUP4 AND ISZERO ISZERO OR SWAP1 SSTORE PUSH1 0x5 SLOAD AND SWAP4 SWAP3 POP POP POP JUMP JUMPDEST PUSH1 0x0 DUP1 SLOAD PUSH1 0x1 PUSH1 0x1 PUSH1 0xA0 SHL SUB AND CALLER EQ ISZERO PUSH2 0x33E JUMPI PUSH1 0x0 DUP1 REVERT JUMPDEST PUSH1 0x1 DUP1 SLOAD PUSH1 0x1 PUSH1 0x1 PUSH1 0xA0 SHL SUB NOT AND PUSH1 0x1 PUSH1 0x1 PUSH1 0xA0 SHL SUB DUP6 DUP2 AND SWAP2 SWAP1 SWAP2 OR SWAP2 DUP3 SWAP1 SSTORE PUSH7 0x2386F26FC10000 SWAP2 AND BALANCE LT DUP1 ISZERO SWAP1 PUSH2 0x37E JUMPI POP PUSH2 0x37C DUP3 PUSH2 0x687 JUMP JUMPDEST ISZERO JUMPDEST PUSH2 0x387 JUMPI PUSH1 0x0 DUP1 REVERT JUMPDEST PUSH1 0x0 JUMPDEST PUSH1 0x6 SLOAD DUP2 LT ISZERO PUSH2 0x5C7 JUMPI PUSH2 0x458 DUP4 PUSH1 0x6 DUP4 DUP2 SLOAD DUP2 LT PUSH2 0x3B9 JUMPI PUSH4 0x4E487B71 PUSH1 0xE0 SHL PUSH1 0x0 MSTORE PUSH1 0x32 PUSH1 0x4 MSTORE PUSH1 0x24 PUSH1 0x0 REVERT JUMPDEST SWAP1 PUSH1 0x0 MSTORE PUSH1 0x20 PUSH1 0x0 KECCAK256 SWAP1 PUSH1 0x4 MUL ADD PUSH1 0x1 ADD DUP1 SLOAD PUSH2 0x3D5 SWAP1 PUSH2 0xAEE JUMP JUMPDEST DUP1 PUSH1 0x1F ADD PUSH1 0x20 DUP1 SWAP2 DIV MUL PUSH1 0x20 ADD PUSH1 0x40 MLOAD SWAP1 DUP2 ADD PUSH1 0x40 MSTORE DUP1 SWAP3 SWAP2 SWAP1 DUP2 DUP2 MSTORE PUSH1 0x20 ADD DUP3 DUP1 SLOAD PUSH2 0x401 SWAP1 PUSH2 0xAEE JUMP JUMPDEST DUP1 ISZERO PUSH2 0x44E JUMPI DUP1 PUSH1 0x1F LT PUSH2 0x423 JUMPI PUSH2 0x100 DUP1 DUP4 SLOAD DIV MUL DUP4 MSTORE SWAP2 PUSH1 0x20 ADD SWAP2 PUSH2 0x44E JUMP JUMPDEST DUP3 ADD SWAP2 SWAP1 PUSH1 0x0 MSTORE PUSH1 0x20 PUSH1 0x0 KECCAK256 SWAP1 JUMPDEST DUP2 SLOAD DUP2 MSTORE SWAP1 PUSH1 0x1 ADD SWAP1 PUSH1 0x20 ADD DUP1 DUP4 GT PUSH2 0x431 JUMPI DUP3 SWAP1 SUB PUSH1 0x1F AND DUP3 ADD SWAP2 JUMPDEST POP POP POP POP POP PUSH2 0x716 JUMP JUMPDEST ISZERO PUSH2 0x5B5 JUMPI PUSH1 0x0 SLOAD PUSH1 0x6 DUP1 SLOAD PUSH1 0x1 PUSH1 0x1 PUSH1 0xA0 SHL SUB SWAP1 SWAP3 AND SWAP2 PUSH2 0x8FC SWAP2 SWAP1 DUP5 SWAP1 DUP2 LT PUSH2 0x493 JUMPI PUSH4 0x4E487B71 PUSH1 0xE0 SHL PUSH1 0x0 MSTORE PUSH1 0x32 PUSH1 0x4 MSTORE PUSH1 0x24 PUSH1 0x0 REVERT JUMPDEST SWAP1 PUSH1 0x0 MSTORE PUSH1 0x20 PUSH1 0x0 KECCAK256 SWAP1 PUSH1 0x4 MUL ADD PUSH1 0x2 ADD SLOAD SWAP1 DUP2 ISZERO MUL SWAP1 PUSH1 0x40 MLOAD PUSH1 0x0 PUSH1 0x40 MLOAD DUP1 DUP4 SUB DUP2 DUP6 DUP9 DUP9 CALL SWAP4 POP POP POP POP ISZERO DUP1 ISZERO PUSH2 0x4D0 JUMPI RETURNDATASIZE PUSH1 0x0 DUP1 RETURNDATACOPY RETURNDATASIZE PUSH1 0x0 REVERT JUMPDEST POP PUSH1 0x1 SLOAD PUSH1 0x6 DUP1 SLOAD PUSH1 0x1 PUSH1 0x1 PUSH1 0xA0 SHL SUB SWAP1 SWAP3 AND SWAP2 DUP4 SWAP1 DUP2 LT PUSH2 0x502 JUMPI PUSH4 0x4E487B71 PUSH1 0xE0 SHL PUSH1 0x0 MSTORE PUSH1 0x32 PUSH1 0x4 MSTORE PUSH1 0x24 PUSH1 0x0 REVERT JUMPDEST SWAP1 PUSH1 0x0 MSTORE PUSH1 0x20 PUSH1 0x0 KECCAK256 SWAP1 PUSH1 0x4 MUL ADD PUSH1 0x0 ADD PUSH1 0x0 PUSH2 0x100 EXP DUP2 SLOAD DUP2 PUSH1 0x1 PUSH1 0x1 PUSH1 0xA0 SHL SUB MUL NOT AND SWAP1 DUP4 PUSH1 0x1 PUSH1 0x1 PUSH1 0xA0 SHL SUB AND MUL OR SWAP1 SSTORE POP PUSH1 0x1 PUSH1 0x6 DUP3 DUP2 SLOAD DUP2 LT PUSH2 0x55A JUMPI PUSH4 0x4E487B71 PUSH1 0xE0 SHL PUSH1 0x0 MSTORE PUSH1 0x32 PUSH1 0x4 MSTORE PUSH1 0x24 PUSH1 0x0 REVERT JUMPDEST PUSH1 0x0 SWAP2 DUP3 MSTORE PUSH1 0x20 DUP1 DUP4 KECCAK256 PUSH1 0x3 PUSH1 0x4 SWAP1 SWAP4 MUL ADD SWAP2 SWAP1 SWAP2 ADD DUP1 SLOAD SWAP4 ISZERO ISZERO PUSH1 0xFF NOT SWAP1 SWAP5 AND SWAP4 SWAP1 SWAP4 OR SWAP1 SWAP3 SSTORE PUSH1 0x1 SLOAD DUP2 SLOAD PUSH1 0x1 PUSH1 0x1 PUSH1 0xA0 SHL SUB SWAP1 DUP2 AND DUP4 MSTORE PUSH1 0x7 SWAP1 SWAP4 MSTORE PUSH1 0x40 SWAP1 SWAP2 KECCAK256 DUP1 SLOAD PUSH1 0x1 PUSH1 0x1 PUSH1 0xA0 SHL SUB NOT AND SWAP3 SWAP1 SWAP2 AND SWAP2 SWAP1 SWAP2 OR SWAP1 SSTORE JUMPDEST DUP1 PUSH2 0x5BF DUP2 PUSH2 0xB29 JUMP JUMPDEST SWAP2 POP POP PUSH2 0x38A JUMP JUMPDEST POP PUSH1 0x0 SLOAD PUSH1 0x1 SLOAD PUSH1 0x40 MLOAD PUSH32 0xB6316B0027FB4C4F0FC092262DB612369B24790E9B16502E7DED7055168FBD8 SWAP3 PUSH2 0x60D SWAP3 PUSH1 0x1 PUSH1 0x1 PUSH1 0xA0 SHL SUB SWAP2 DUP3 AND SWAP3 SWAP2 AND SWAP1 DUP7 SWAP1 PUSH2 0xA42 JUMP JUMPDEST PUSH1 0x40 MLOAD DUP1 SWAP2 SUB SWAP1 LOG1 POP PUSH1 0x1 SWAP3 SWAP2 POP POP JUMP JUMPDEST PUSH1 0x7 PUSH1 0x20 MSTORE PUSH1 0x0 SWAP1 DUP2 MSTORE PUSH1 0x40 SWAP1 KECCAK256 SLOAD PUSH1 0x1 PUSH1 0x1 PUSH1 0xA0 SHL SUB AND DUP2 JUMP JUMPDEST PUSH1 0x1 SLOAD PUSH1 0x1 PUSH1 0x1 PUSH1 0xA0 SHL SUB AND DUP2 JUMP JUMPDEST PUSH1 0x6 DUP2 DUP2 SLOAD DUP2 LT PUSH2 0x658 JUMPI PUSH1 0x0 DUP1 REVERT JUMPDEST PUSH1 0x0 SWAP2 DUP3 MSTORE PUSH1 0x20 SWAP1 SWAP2 KECCAK256 PUSH1 0x4 SWAP1 SWAP2 MUL ADD DUP1 SLOAD PUSH1 0x1 DUP3 ADD DUP1 SLOAD PUSH1 0x1 PUSH1 0x1 PUSH1 0xA0 SHL SUB SWAP1 SWAP3 AND SWAP4 POP SWAP1 PUSH2 0x178 SWAP1 PUSH2 0xAEE JUMP JUMPDEST PUSH1 0x0 DUP1 DUP1 JUMPDEST PUSH1 0x6 SLOAD DUP2 LT ISZERO PUSH2 0x70D JUMPI PUSH2 0x6BB DUP5 PUSH1 0x6 DUP4 DUP2 SLOAD DUP2 LT PUSH2 0x3B9 JUMPI PUSH4 0x4E487B71 PUSH1 0xE0 SHL PUSH1 0x0 MSTORE PUSH1 0x32 PUSH1 0x4 MSTORE PUSH1 0x24 PUSH1 0x0 REVERT JUMPDEST ISZERO PUSH2 0x6FB JUMPI PUSH1 0x6 DUP2 DUP2 SLOAD DUP2 LT PUSH2 0x6E1 JUMPI PUSH4 0x4E487B71 PUSH1 0xE0 SHL PUSH1 0x0 MSTORE PUSH1 0x32 PUSH1 0x4 MSTORE PUSH1 0x24 PUSH1 0x0 REVERT JUMPDEST PUSH1 0x0 SWAP2 DUP3 MSTORE PUSH1 0x20 SWAP1 SWAP2 KECCAK256 PUSH1 0x3 PUSH1 0x4 SWAP1 SWAP3 MUL ADD ADD SLOAD PUSH1 0xFF AND SWAP2 POP JUMPDEST DUP1 PUSH2 0x705 DUP2 PUSH2 0xB29 JUMP JUMPDEST SWAP2 POP POP PUSH2 0x68C JUMP JUMPDEST POP SWAP1 POP JUMPDEST SWAP2 SWAP1 POP JUMP JUMPDEST PUSH1 0x0 DUP1 DUP3 PUSH1 0x40 MLOAD PUSH1 0x20 ADD PUSH2 0x72A SWAP2 SWAP1 PUSH2 0xA12 JUMP JUMPDEST PUSH1 0x40 MLOAD PUSH1 0x20 DUP2 DUP4 SUB SUB DUP2 MSTORE SWAP1 PUSH1 0x40 MSTORE DUP1 MLOAD SWAP1 PUSH1 0x20 ADD KECCAK256 DUP5 PUSH1 0x40 MLOAD PUSH1 0x20 ADD PUSH2 0x751 SWAP2 SWAP1 PUSH2 0xA12 JUMP JUMPDEST PUSH1 0x40 DUP1 MLOAD DUP1 DUP4 SUB PUSH1 0x1F NOT ADD DUP2 MSTORE SWAP2 SWAP1 MSTORE DUP1 MLOAD PUSH1 0x20 SWAP1 SWAP2 ADD KECCAK256 EQ SWAP5 SWAP4 POP POP POP POP JUMP JUMPDEST DUP3 DUP1 SLOAD PUSH2 0x77E SWAP1 PUSH2 0xAEE JUMP JUMPDEST SWAP1 PUSH1 0x0 MSTORE PUSH1 0x20 PUSH1 0x0 KECCAK256 SWAP1 PUSH1 0x1F ADD PUSH1 0x20 SWAP1 DIV DUP2 ADD SWAP3 DUP3 PUSH2 0x7A0 JUMPI PUSH1 0x0 DUP6 SSTORE PUSH2 0x7E6 JUMP JUMPDEST DUP3 PUSH1 0x1F LT PUSH2 0x7B9 JUMPI DUP1 MLOAD PUSH1 0xFF NOT AND DUP4 DUP1 ADD OR DUP6 SSTORE PUSH2 0x7E6 JUMP JUMPDEST DUP3 DUP1 ADD PUSH1 0x1 ADD DUP6 SSTORE DUP3 ISZERO PUSH2 0x7E6 JUMPI SWAP2 DUP3 ADD JUMPDEST DUP3 DUP2 GT ISZERO PUSH2 0x7E6 JUMPI DUP3 MLOAD DUP3 SSTORE SWAP2 PUSH1 0x20 ADD SWAP2 SWAP1 PUSH1 0x1 ADD SWAP1 PUSH2 0x7CB JUMP JUMPDEST POP PUSH2 0x7F2 SWAP3 SWAP2 POP PUSH2 0x871 JUMP JUMPDEST POP SWAP1 JUMP JUMPDEST DUP3 DUP1 SLOAD PUSH2 0x802 SWAP1 PUSH2 0xAEE JUMP JUMPDEST SWAP1 PUSH1 0x0 MSTORE PUSH1 0x20 PUSH1 0x0 KECCAK256 SWAP1 PUSH1 0x1F ADD PUSH1 0x20 SWAP1 DIV DUP2 ADD SWAP3 DUP3 PUSH2 0x824 JUMPI PUSH1 0x0 DUP6 SSTORE PUSH2 0x7E6 JUMP JUMPDEST DUP3 PUSH1 0x1F LT PUSH2 0x835 JUMPI DUP1 SLOAD DUP6 SSTORE PUSH2 0x7E6 JUMP JUMPDEST DUP3 DUP1 ADD PUSH1 0x1 ADD DUP6 SSTORE DUP3 ISZERO PUSH2 0x7E6 JUMPI PUSH1 0x0 MSTORE PUSH1 0x20 PUSH1 0x0 KECCAK256 SWAP2 PUSH1 0x1F ADD PUSH1 0x20 SWAP1 DIV DUP3 ADD JUMPDEST DUP3 DUP2 GT ISZERO PUSH2 0x7E6 JUMPI DUP3 SLOAD DUP3 SSTORE SWAP2 PUSH1 0x1 ADD SWAP2 SWAP1 PUSH1 0x1 ADD SWAP1 PUSH2 0x856 JUMP JUMPDEST JUMPDEST DUP1 DUP3 GT ISZERO PUSH2 0x7F2 JUMPI PUSH1 0x0 DUP2 SSTORE PUSH1 0x1 ADD PUSH2 0x872 JUMP JUMPDEST DUP1 CALLDATALOAD PUSH1 0x1 PUSH1 0x1 PUSH1 0xA0 SHL SUB DUP2 AND DUP2 EQ PUSH2 0x711 JUMPI PUSH1 0x0 DUP1 REVERT JUMPDEST PUSH1 0x0 DUP3 PUSH1 0x1F DUP4 ADD SLT PUSH2 0x8AD JUMPI DUP1 DUP2 REVERT JUMPDEST DUP2 CALLDATALOAD PUSH8 0xFFFFFFFFFFFFFFFF DUP1 DUP3 GT ISZERO PUSH2 0x8C8 JUMPI PUSH2 0x8C8 PUSH2 0xB50 JUMP JUMPDEST PUSH1 0x40 MLOAD PUSH1 0x1F DUP4 ADD PUSH1 0x1F NOT AND DUP2 ADD PUSH1 0x20 ADD DUP3 DUP2 GT DUP3 DUP3 LT OR ISZERO PUSH2 0x8EC JUMPI PUSH2 0x8EC PUSH2 0xB50 JUMP JUMPDEST PUSH1 0x40 MSTORE DUP3 DUP2 MSTORE DUP5 DUP4 ADD PUSH1 0x20 ADD DUP7 LT ISZERO PUSH2 0x903 JUMPI DUP4 DUP5 REVERT JUMPDEST DUP3 PUSH1 0x20 DUP7 ADD PUSH1 0x20 DUP4 ADD CALLDATACOPY SWAP2 DUP3 ADD PUSH1 0x20 ADD SWAP3 SWAP1 SWAP3 MSTORE SWAP4 SWAP3 POP POP POP JUMP JUMPDEST PUSH1 0x0 PUSH1 0x20 DUP3 DUP5 SUB SLT ISZERO PUSH2 0x92F JUMPI DUP1 DUP2 REVERT JUMPDEST PUSH2 0x938 DUP3 PUSH2 0x886 JUMP JUMPDEST SWAP4 SWAP3 POP POP POP JUMP JUMPDEST PUSH1 0x0 DUP1 PUSH1 0x40 DUP4 DUP6 SUB SLT ISZERO PUSH2 0x951 JUMPI DUP1 DUP2 REVERT JUMPDEST PUSH2 0x95A DUP4 PUSH2 0x886 JUMP JUMPDEST SWAP2 POP PUSH1 0x20 DUP4 ADD CALLDATALOAD PUSH8 0xFFFFFFFFFFFFFFFF DUP2 GT ISZERO PUSH2 0x975 JUMPI DUP2 DUP3 REVERT JUMPDEST PUSH2 0x981 DUP6 DUP3 DUP7 ADD PUSH2 0x89D JUMP JUMPDEST SWAP2 POP POP SWAP3 POP SWAP3 SWAP1 POP JUMP JUMPDEST PUSH1 0x0 DUP1 PUSH1 0x40 DUP4 DUP6 SUB SLT ISZERO PUSH2 0x99D JUMPI DUP2 DUP3 REVERT JUMPDEST DUP3 CALLDATALOAD PUSH8 0xFFFFFFFFFFFFFFFF DUP2 GT ISZERO PUSH2 0x9B3 JUMPI DUP3 DUP4 REVERT JUMPDEST PUSH2 0x9BF DUP6 DUP3 DUP7 ADD PUSH2 0x89D JUMP JUMPDEST SWAP6 PUSH1 0x20 SWAP5 SWAP1 SWAP5 ADD CALLDATALOAD SWAP5 POP POP POP POP JUMP JUMPDEST PUSH1 0x0 PUSH1 0x20 DUP3 DUP5 SUB SLT ISZERO PUSH2 0x9DF JUMPI DUP1 DUP2 REVERT JUMPDEST POP CALLDATALOAD SWAP2 SWAP1 POP JUMP JUMPDEST PUSH1 0x0 DUP2 MLOAD DUP1 DUP5 MSTORE PUSH2 0x9FE DUP2 PUSH1 0x20 DUP7 ADD PUSH1 0x20 DUP7 ADD PUSH2 0xABE JUMP JUMPDEST PUSH1 0x1F ADD PUSH1 0x1F NOT AND SWAP3 SWAP1 SWAP3 ADD PUSH1 0x20 ADD SWAP3 SWAP2 POP POP JUMP JUMPDEST PUSH1 0x0 DUP3 MLOAD PUSH2 0xA24 DUP2 DUP5 PUSH1 0x20 DUP8 ADD PUSH2 0xABE JUMP JUMPDEST SWAP2 SWAP1 SWAP2 ADD SWAP3 SWAP2 POP POP JUMP JUMPDEST PUSH1 0x1 PUSH1 0x1 PUSH1 0xA0 SHL SUB SWAP2 SWAP1 SWAP2 AND DUP2 MSTORE PUSH1 0x20 ADD SWAP1 JUMP JUMPDEST PUSH1 0x1 PUSH1 0x1 PUSH1 0xA0 SHL SUB DUP5 DUP2 AND DUP3 MSTORE DUP4 AND PUSH1 0x20 DUP3 ADD MSTORE PUSH1 0x60 PUSH1 0x40 DUP3 ADD DUP2 SWAP1 MSTORE PUSH1 0x0 SWAP1 PUSH2 0xA6E SWAP1 DUP4 ADD DUP5 PUSH2 0x9E6 JUMP JUMPDEST SWAP6 SWAP5 POP POP POP POP POP JUMP JUMPDEST PUSH1 0x1 PUSH1 0x1 PUSH1 0xA0 SHL SUB DUP6 AND DUP2 MSTORE PUSH1 0x80 PUSH1 0x20 DUP3 ADD DUP2 SWAP1 MSTORE PUSH1 0x0 SWAP1 PUSH2 0xA9B SWAP1 DUP4 ADD DUP7 PUSH2 0x9E6 JUMP JUMPDEST PUSH1 0x40 DUP4 ADD SWAP5 SWAP1 SWAP5 MSTORE POP SWAP1 ISZERO ISZERO PUSH1 0x60 SWAP1 SWAP2 ADD MSTORE SWAP3 SWAP2 POP POP JUMP JUMPDEST SWAP1 ISZERO ISZERO DUP2 MSTORE PUSH1 0x20 ADD SWAP1 JUMP JUMPDEST PUSH1 0x0 JUMPDEST DUP4 DUP2 LT ISZERO PUSH2 0xAD9 JUMPI DUP2 DUP2 ADD MLOAD DUP4 DUP3 ADD MSTORE PUSH1 0x20 ADD PUSH2 0xAC1 JUMP JUMPDEST DUP4 DUP2 GT ISZERO PUSH2 0xAE8 JUMPI PUSH1 0x0 DUP5 DUP5 ADD MSTORE JUMPDEST POP POP POP POP JUMP JUMPDEST PUSH1 0x2 DUP2 DIV PUSH1 0x1 DUP3 AND DUP1 PUSH2 0xB02 JUMPI PUSH1 0x7F DUP3 AND SWAP2 POP JUMPDEST PUSH1 0x20 DUP3 LT DUP2 EQ ISZERO PUSH2 0xB23 JUMPI PUSH4 0x4E487B71 PUSH1 0xE0 SHL PUSH1 0x0 MSTORE PUSH1 0x22 PUSH1 0x4 MSTORE PUSH1 0x24 PUSH1 0x0 REVERT JUMPDEST POP SWAP2 SWAP1 POP JUMP JUMPDEST PUSH1 0x0 PUSH1 0x0 NOT DUP3 EQ ISZERO PUSH2 0xB49 JUMPI PUSH4 0x4E487B71 PUSH1 0xE0 SHL DUP2 MSTORE PUSH1 0x11 PUSH1 0x4 MSTORE PUSH1 0x24 DUP2 REVERT JUMPDEST POP PUSH1 0x1 ADD SWAP1 JUMP JUMPDEST PUSH4 0x4E487B71 PUSH1 0xE0 SHL PUSH1 0x0 MSTORE PUSH1 0x41 PUSH1 0x4 MSTORE PUSH1 0x24 PUSH1 0x0 REVERT INVALID LOG2 PUSH5 0x6970667358 0x22 SLT KECCAK256 REVERT SLT 0xEB 0xA6 EXP 0xE1 CHAINID 0x27 DUP4 PUSH22 0x82C8FCC6EFDD5E6FC48154FCBF49BD384A5B8CCED23E PUSH5 0x736F6C6343 STOP ADDMOD STOP STOP CALLER ",
  "sha1": "bad89b146dc62661ddca637e2a657a4e77cb36b9",
  "source": "// SPDX-License-Identifier: GPL-3.0\n\npragma solidity 0.8.0;\n\n//pragma solidity 0.6.0;\n\ncontract sellingContract {\n    address payable public seller;\n    address payable public buyer;\n\n    struct asset {\n        address owner;\n        string description;\n        uint256 price;\n        bool sold;\n    }\n\n    event purchaseOp(address seller, address buyer, string bought);\n\n    asset public newAsset;\n\n    asset[] public assetList;\n    mapping(address => address) public parties;\n\n    // o.6.0 require to set the constructor to public , 0.8.0 doesnt need\n    constructor() {\n        seller = payable(msg.sender);\n    }\n\n    function comparison(string memory string1, string memory string2)\n        private\n        pure\n        returns (bool)\n    {\n        bool isEqual = keccak256(abi.encodePacked(string1)) ==\n            keccak256(abi.encodePacked(string2));\n        return isEqual;\n    }\n\n    function checkAvalability(string memory _string)\n        internal\n        view\n        returns (bool)\n    {\n        bool isAvalable = false;\n        for (uint256 i = 0; i < assetList.length; i++) {\n            if (comparison(_string, assetList[i].description)) {\n                isAvalable = assetList[i].sold;\n            }\n        }\n        return isAvalable;\n    }\n\n    function setItem(string memory _description, uint256 _price)\n        public\n        onlySeller\n        returns (bool)\n    {\n        newAsset.description = _description;\n        newAsset.price = _price;\n        newAsset.sold = false;\n        newAsset.owner = seller;\n        assetList.push(newAsset);\n        return newAsset.sold;\n    }\n\n    function purchase(address _buyer, string memory _item)\n        public\n        payable\n        onlyBuyer\n        returns (bool)\n    {\n        buyer = payable(_buyer);\n        require(\n            (buyer.balance >= 0.01 ether) && (checkAvalability(_item) == false)\n        );\n        for (uint256 i = 0; i < assetList.length; i++) {\n            if (comparison(_item, assetList[i].description)) {\n                seller.transfer(assetList[i].price);\n                assetList[i].owner = buyer;\n                assetList[i].sold = true;\n                parties[seller] = buyer;\n            }\n        }\n        emit purchaseOp(seller, buyer, _item);\n\n        return true;\n    }\n\n    modifier onlySeller() {\n        require(msg.sender == seller);\n        _;\n    }\n\n    modifier onlyBuyer() {\n        require(msg.sender != seller);\n        _;\n    }\n}\n",
  "sourcePath": "contracts/legalSmartContract.sol",
  "type": "contract"
}